{"abi":[{"inputs":[],"name":"get","outputs":[{"internalType":"uint256","name":"","type":"uint256"}],"stateMutability":"view","type":"function"},{"inputs":[{"internalType":"uint256","name":"_num","type":"uint256"}],"name":"set","outputs":[],"stateMutability":"nonpayable","type":"function"},{"inputs":[],"name":"storedNumber","outputs":[{"internalType":"uint256","name":"","type":"uint256"}],"stateMutability":"view","type":"function"}],"bytecode":"6080604052348015600f57600080fd5b5060c280601d6000396000f3fe6080604052348015600f57600080fd5b5060043610603c5760003560e01c806309ce9ccb14604157806360fe47b114605b5780636d4ce63c14606d575b600080fd5b604960005481565b60405190815260200160405180910390f35b606b60663660046074565b600055565b005b6000546049565b600060208284031215608557600080fd5b503591905056fea26469706673582212209b99ab3264d56c5854233bdfd4f5fab4ef59f4ec7d4433aa19bbce8369a67ec964736f6c634300081e0033","bytecodeSha1":"1a56b4390bb92f519a59b96829d64826e9619da5","compiler":{"evm_version":"istanbul","optimizer":{"enabled":true,"runs":200},"version":"0.8.30+commit.73712a01"},"contractName":"SimpleStorage","language":"Solidity","natspec":{"kind":"dev","methods":{},"version":1},"opcodes":"PUSH1 0x80 PUSH1 0x40 MSTORE CALLVALUE DUP1 ISZERO PUSH1 0xF JUMPI PUSH1 0x0 DUP1 REVERT JUMPDEST POP PUSH1 0x4 CALLDATASIZE LT PUSH1 0x3C JUMPI PUSH1 0x0 CALLDATALOAD PUSH1 0xE0 SHR DUP1 PUSH4 0x9CE9CCB EQ PUSH1 0x41 JUMPI DUP1 PUSH4 0x60FE47B1 EQ PUSH1 0x5B JUMPI DUP1 PUSH4 0x6D4CE63C EQ PUSH1 0x6D JUMPI JUMPDEST PUSH1 0x0 DUP1 REVERT JUMPDEST PUSH1 0x49 PUSH1 0x0 SLOAD DUP2 JUMP JUMPDEST PUSH1 0x40 MLOAD SWAP1 DUP2 MSTORE PUSH1 0x20 ADD PUSH1 0x40 MLOAD DUP1 SWAP2 SUB SWAP1 RETURN JUMPDEST PUSH1 0x6B PUSH1 0x66 CALLDATASIZE PUSH1 0x4 PUSH1 0x74 JUMP JUMPDEST PUSH1 0x0 SSTORE JUMP JUMPDEST STOP JUMPDEST PUSH1 0x0 SLOAD PUSH1 0x49 JUMP JUMPDEST PUSH1 0x0 PUSH1 0x20 DUP3 DUP5 SUB SLT ISZERO PUSH1 0x85 JUMPI PUSH1 0x0 DUP1 REVERT JUMPDEST POP CALLDATALOAD SWAP2 SWAP1 POP JUMP INVALID LOG2 PUSH5 0x6970667358 0x22 SLT KECCAK256 SWAP12 SWAP10 0xAB ORIGIN PUSH5 0xD56C585423 EXTCODESIZE 0xDF 0xD4 CREATE2 STATICCALL 0xB4 0xEF MSIZE DELEGATECALL EOFCREATE 0x7D DIFFICULTY CALLER 0xAA NOT 0xBB 0xCE DUP4 PUSH10 0xA67EC964736F6C634300 ADDMOD 0x1E STOP CALLER ","sha1":"1fec75d425428b008e9f50e932c027d6a7003f68","source":"// SPDX-License-Identifier: MIT\npragma solidity ^0.8.0;\n\ncontract SimpleStorage {\n    uint256 public storedNumber;\n\n    function set(uint256 _num) public {\n        storedNumber = _num;\n    }\n\n    function get() public view returns (uint256) {\n        return storedNumber;\n    }\n}\n","sourcePath":"contracts/SimpleStorage.sol","type":"contract","deployment":{"address":"0x1c5afd90714E2a40547246DDD92668F2715caF78","chainid":"11155111","blockHeight":8454303}}